:1000000017010200130101001301C1FE2328110092
:1000100023269100232421012322310123204101A1
:10002000930405001389050093090000130A0000DA
:1000300063542A0313132A00B383640003AE03003E
:1000400013050E0093050E00EF00C003B389A9004D
:10005000130A1A006FF0DFFD13850900EF00C00AD4
:10006000832001018324C1000329810083294100E9
:10007000032A010013014101678000002380A500CD
:040080006780000095
:10008400130101FD2326810213040103232EA4FC82
:10009400232CB4FC232604FE232404FE8327C4FD5E
:1000A40063D60702930710002324F4FE8327C4FDBC
:1000B400B307F040232EF4FC6F0040010327C4FE75
:1000C400832784FDB307F7002326F4FE8327C4FDAA
:1000D4001387F7FF232EE4FCE39207FE832784FEB5
:1000E400638807008327C4FEB307F0406F008000D5
:1000F4008327C4FE138507000324C10213010103EF
:040104006780000010
:10010800130101FD23261102232481021304010394
:10011800232EA4FC232604FE6F0000018327C4FEBF
:10012800938717002326F4FE8325C4FE0325C4FE07
:10013800EFF0DFF4130705008327C4FDE340F7FE63
:100148008327C4FE138507008320C102032481028C
:080158001301010367800000A0
:10016000130101FE232E1100232C81001304010230
:1001700093055000B707010013850700EFF0DFE893
:100180002326A4FE93055000B707010013854701FD
:10019000EFF09FE72324A4FE0327C4FE832784FEF9
:1001A000B3A7E70093F7F70FA303F4FE030774FE6A
:1001B000B70701009385870213050700EFF01FECD6
:0401C0006F000000CC
:020000021000EC
:100000000500000002000000FDFFFFFF07000000E8
:0400100006000000E6
:1000140006000000FFFFFFFF0100000000000000D9
:0400240003000000D5
:040000030000016098
:00000001FF
