:100000009302000063DCA202130300006354A30206
:10001000B383A202B383630093932300338EB300B0
:10002000B38EC300032E0E0023A0CE0113031300D2
:100030006FF0DFFD938212006FF0DFFC678000003D
:100040009302000063DAA206130300006352A306C2
:10005000B383A202B383630093932300338ED30050
:10006000930E0000130F0000635EAF02B383A20281
:10007000B383E30193932300B383B30083A303000B
:10008000B30FAF02B38F6F00939F2F00B38FCF00DA
:1000900083AF0F00B38FF303B38EFE01130F1F0066
:1000A0006FF09FFC2320DE01130313006FF01FFA93
:1000B000938212006FF01FF967800000130101FEA8
:1000C0002320110023229100232421012326310122
:1000D00023284101232A5101232C6101232E710180
:1000E000330AA502131A2A0033014141130A0500FD
:1000F000930A0600138B0500938B060093040000FF
:1001000063D2440513090000635A4903B3824403D0
:10011000B382220193922200B38272016398240178
:100120001303100023A062006F00C000130300003F
:1001300023A06200130919006FF01FFD93841400BF
:100140006FF01FFC9309100063C83A0313050A00FF
:1001500093050B0013860B0093060100EFF05FEE92
:1001600013050A009305010013860B00EFF05FE909
:10017000938919006FF05FFD330AA502131A2A0054
:1001800033014101832001008324410003298100C0
:100190008329C100032A0101832A4101032B810124
:0C01A000832BC1011301010267800000E5
:1001AC00130101FF232611002324810013040101F4
:1001BC00B70701009386470613063000B707010006
:1001CC009385070013055000EFF09FEEB707010071
:1001DC009387470603A7C700B707010023A4E70CC2
:0401EC006F000000A0
:020000021000EC
:1000000000000000010000000100000000000000EE
:1000100000000000000000000000000001000000DF
:1000200000000000000000000100000000000000CF
:1000300000000000000000000100000001000000BE
:1000400000000000010000000000000001000000AE
:10005000000000000000000000000000010000009F
:04006000010000009B
:04000003000001AC4C
:00000001FF
